:020000040800F2
:10000000480D002035020008451D00087D1C000831
:10001000411D0008011400083D2E000800000000EA
:10002000000000000000000000000000552500084E
:100030002916000800000000191F000869260008A2
:100040004F0200084F0200084F0200084F0200084C
:100050004F0200084F0200084F0200082D1600084A
:10006000D51600087D170008211800084F02000867
:100070004F0200084F0200084F0200084F0200081C
:100080004F0200084F0200084F0200084F0200080C
:100090004F0200084F0200084F0200084F020008FC
:1000A0004F0200084F0200084F0200084F020008EC
:1000B0004F0200084F020008AD2700084F02000859
:1000C0004F0200084F0200084F0200084F020008CC
:1000D0004F020008312A0008BD2A00084F0200081C
:1000E0004F0200084F0200084F0200084F020008AC
:1000F0004F0200084F0200084F0200084F0200089C
:100100004F0200084F0200084F0200084F0200088B
:100110004F0200084F0200084F0200084F0200087B
:100120004F0200084F0200084F0200084F0200086B
:1001300000F002F800F06EF80AA090E8000C82448B
:100140008344AAF10107DA4501D100F063F8AFF268
:10015000090EBAE80F0013F0010F18BFFB1A43F0A5
:1001600001031847C4420000E442000010F8013BBC
:100170000A4413F0030408BF10F8014B1D1108BF17
:1001800010F8015B641E05D010F8016B641E01F8C5
:10019000016BF9D1002D15D010F8014B03F00C03C1
:1001A0000C2BA1EB04040ABF10F8013BA4EB831451
:1001B000A4EB032405F1010314F8016B5B1E01F8A5
:1001C000016BF9D5914238BF10F8013BD1D370478C
:1001D0000023002400250026103A28BF78C1FBD850
:1001E000520728BF30C148BF0B607047662904F032
:1001F000CF80642900F08080002070471FB500F098
:1002000091FB04000020002103F034FCE0601FBDDE
:1002100010B510BD00F0A2FC1146FFF7EFFF03F090
:10022000A7FA00F0C0FC03B4FFF7F2FF03BC02F032
:1002300057FE00000948804709480047FEE7FEE7EF
:10024000FEE7FEE7FEE7FEE7FEE7FEE7FEE7FEE786
:1002500004480549054A064B704700006D26000812
:100260003101000848070020480D002048090020FF
:1002700048090020704700000FB4044910B503AAD4
:10028000029800F015FB10BC5DF814FB180000206C
:100290002DE9F0410E460446002020622046E16828
:1002A000884730B3252805D0D4E901219047206A3A
:1002B000401CF2E7E168204600278847050018D077
:1002C000A5F14100192802D820354FF400673246C5
:1002D000294620462760FFF789FF40B1012804D056
:1002E000F61D26F007060836D8E7361DD6E728465D
:1002F000DAE7206ABDE8F0812DE9F04106460024E6
:1003000010687529314616A510D0AFF3008000287B
:1003100002DA404213A507E031688A0701D512A529
:1003200002E0490704D511A5012401E0AFF30080E4
:1003300000210A2206F1240709E0B0FBF2FCB0FB21
:10034000F2F302FB1C00303078541846491C002898
:10035000F3D123462A463046BDE8F04100F040B8CC
:10036000000000002D0000002B0000002000000015
:1003700030B505460B462A4613F8014B12F8010B1F
:1003800008B1A042F8D01CB1002802D06D1CF1E7E2
:10039000284630BD4FF000020429C0F0128010F052
:1003A000030C00F09982CCF1040CBCF1020F18BFD1
:1003B00000F8012BA8BF20F8022BA1EB0C0100F0E4
:1003C0008BBA5FEAC17C24BF00F8012B00F8012B37
:1003D00048BF00F8012B704770477047704770475F
:1003E0002DE9F0470D4699469246044600F124084F
:1003F0000168880604D5E06921F01001216000E061
:100400000120A84201DD471B00E00027A1697A19FD
:1004100002EB0900081AA0612078C00602D4204629
:10042000AFF30080002608E0D4E901211AF80600A5
:100430009047206A401C761C20624E45F4DB2078F1
:10044000C0060AD52046AFF3008006E0D4E90121BA
:1004500030209047206A401C2062381EA7F1010717
:10046000F4DC07E0D4E9012118F805009047206A80
:10047000401C2062281EA5F10105F3DC2046AFF3E5
:1004800000802078000602D50220BDE8F087012018
:10049000FBE770472DE9FF4F0C461E464FF0FF3734
:1004A0008BB0D2E90001DDF860800A908A46C1F382
:1004B0000A5505B93D46002108464FF00000BAF143
:1004C000000F00F4400005DA00EB80004FF440011B
:1004D00001EA50004FEA9059B9F1010F00DDB94629
:1004E0000A9850EA4A000ED044F61050A5F2FF35A3
:1004F00045432F14B8F1000F1ED07542291E1EDD92
:10050000C9F100021CE0B8F1010F4FF0000001D06A
:10051000302103E0F24305E02154401CB042FBDBF4
:1005200030460022002121540B99C1F80880C1E90E
:1005300000200FB0BDE8F08FBD1B6D1CDEE74A4602
:1005400000DA694206A800F08FFA06AB93E80700CC
:1005500003AB83E8070050460A9900F06DFB8DE875
:100560000700A0F500501F3800900398002D0ADD09
:1005700042F21F014A460844002303A9039068463B
:1005800000F0D6FD09E0A0F500504A461F380023D0
:1005900003A90390684600F0E0FD8DE80700000421
:1005A000000C03D04FF0FF30410800E01046B8F1D6
:1005B000000F03D00022009215461EE0751E05D4E0
:1005C00000F0B4F9303262556D1EF9D5B346012200
:1005D000084302D000227F1C04E02078302801D19B
:1005E00000227F1E002A099784D01DE0112D07DA12
:1005F00000F09CF9303262556D1C50EA0102F5D1D1
:10060000084302D00098C8B10EE00021681E05E042
:10061000235C625C63542254401E491C8142F7DB18
:10062000AB46A81B401E0990002004F80B000B9855
:10063000099AC0F80880C0E9002B7AE711264FF02C
:10064000000857E72DE9F04F88460446D21D22F0F6
:10065000070191B0D1E90001CDE90A0102F02CFCBB
:1006600002460B98C00F01D02D2007E020688107BB
:1006700001D52B2002E0202101EAC000032A0990C5
:1006800001D0072A05DB03464146204600F0ACF9BD
:100690000BE12078800601D5E06900E00620B8F182
:1006A000650F814606D0B8F1660F18D0B8F1670F14
:1006B00070D131E00020B9F1110F009001DB11235E
:1006C00001E009F101030AAA01A90CA8FFF7E2FE63
:1006D000DDE90C70002609F10105834647E00120A1
:1006E0004B4600904FF000470AAA01A90CA8FFF75B
:1006F000D1FEDDE90DB00C995D46002610B909F177
:1007000001000D18B9EB050003D4C0F1FF3609F163
:100710000105A5EB09002BE0B9F1010F01DA4FF05B
:1007200001090020B9F1110F0090484601DD1123A5
:1007300000E003460AAA01A90CA8FFF7ABFEDDE919
:100740000C704D4600268346207800070AD4AB453E
:1007500000DA5D4601A8012D04DD411911F8011CE4
:10076000302907D04F4502DA17F1040F04DA0120CF
:1007700082460FE06D1EEEE7002F02DCED1B3E44CB
:1007800003E0781CA84200DD7D1CB81B00F1010AC3
:100790004FF000472078000703D4AA4501DB4FF053
:1007A000FF3A0021B7F1004F0DF143088DF84310D7
:1007B00024D002202B23002F01DA7F422D230A218F
:1007C000021EA0F1010000DC5FB197FBF1FC97FB7A
:1007D000F1F201FB1C7C17460CF1300C08F801CD3E
:1007E000EEE7A8F1010003702188090501D5452134
:1007F00000E06521A0F1010800F8011C09980FA98B
:10080000A1EB0807FF1D00B10120411901EBEA70BF
:10081000A1693844081A401EA0612078C00602D49D
:100820002046AFF30080099828B1D4E90121904710
:10083000206A401C20622078C00622D52046AFF3F3
:1008400000801EE0002E04DBB34502DD01A8805DC0
:1008500000E03020D4E901219047206A401C20624A
:10086000761CAAF101005FEA000A0AD100F05AF8EA
:10087000C0680168405CD4E901219047206A401CAF
:100880002062281EA5F10105DCDC07E0D4E9012186
:1008900018F8010B9047206A401C2062381EA7F10F
:1008A0000107F3DC2046AFF30080032011B041E6DE
:1008B000074B70B50D467B4400F083F8044628468C
:1008C00000F044F910B14FF0FF3070BD204670BD0C
:1008D000072700004FF0000200B5134694469646E5
:1008E000203922BFA0E80C50A0E80C50B1F1200143
:1008F000BFF4F7AF090728BFA0E80C5048BF0CC0F1
:100900005DF804EB890028BF40F8042B08BF70474E
:1009100048BF20F8022B11F0804F18BF00F8012BC0
:1009200070470000004870470407002030B5B0F160
:100930000A024FEA900E71F100034EEA817EB0EB9D
:100940000E0061EB91014FEA101E4EEA017E10EBA2
:100950000E0041EB11114FEA102E4EEA016E10EB22
:100960000E0041EB11214FEA104E4EEA014E10EB02
:100970000E0041EB1141401841F100014FEAD00057
:1009800040EA41704FEAD10110EB80054FEA810443
:1009900044EA907444EB01046D1944EB0404521BC7
:1009A000A3414FF0000348BF0A3200D530BD401CC0
:1009B00041F1000130BD000001694A1C0261087864
:1009C000704700B58FB0CDE901310021059105498F
:1009D0007944CDE9031011466846FFF759FC0FB082
:1009E00000BD0000E5FFFFFF2DE9F0411F46044672
:1009F00003260168072A01F4006004DB08B116A58C
:100A000005E016A503E008B115A500E015A521F045
:100A100010002060A069C01EA0610FB1401EA0613F
:100A20002046AFF300804FB1D4E90121384690470A
:100A3000206A401C2062C01C206206E0206AFAE79F
:100A4000D4E9012115F8010B9047761EF8D2204613
:100A5000AFF30080BDE8F0814E414E006E616E0044
:100A6000494E4600696E66002DE9F04781461646FC
:100A70008AB0354878440DC88DE80D003248784476
:100A8000801C03AC0DC884E80D0041F69B3008447F
:100A9000372190FBF1F290FBF1F5A5F1800501FB08
:100AA00012041B3C02D56442012000E00020DFF864
:100AB00098A080460027FA44AAF1BE0A0EE0E0079B
:100AC0000AD03246684607EB470101230AEB810151
:100AD00000F043FB8DE8070064107F1C002CEED172
:100AE000194F7F44AE3F19E0E80715D007EB04101B
:100AF0000DF1180A90E80E008AE80E00C068F04276
:100B000001D1981908903246012306A903A800F0E4
:100B100024FB03AB83E807006D10641C002DE3D1B8
:100B20004FF0010332466946B8F1000F03A802D026
:100B300000F0FEFA01E000F010FBC9E90001C9F87D
:100B400008200AB0BDE8F08798390000007B00F06B
:100B50008000704700487047E40600207546FFF7A4
:100B6000F9FFAE4605006946534620F0070085466A
:100B700018B020B5FFF76CFBBDE820404FF0000631
:100B80004FF000074FF000084FF0000B21F0070175
:100B9000AC46ACE8C009ACE8C009ACE8C009ACE8B8
:100BA000C0098D46704710B50446AFF3008020465B
:100BB000BDE81040FFF737BB4FF0013C50F8042B65
:100BC00051F8043B9A4221D1A2EB0C03934313EA60
:100BD000CC1317D150F8042B51F8043B9A4215D18D
:100BE000A2EB0C03934313EACC130BD150F8042B64
:100BF00051F8043B9A4209D1A2EB0C03934313EA48
:100C0000CC13DBD04FF00000704700BFD01A01BA00
:100C1000B1FA81F101F0180122FA01F0CB40C1F1E3
:100C20002001DBB2C0B2C01A2CFA01F3D11A9143F1
:100C300011EAC311E6D170475FEA400C08BF91F09A
:100C4000000F4FEA8C234FEAC12243EA51514FEA89
:100C50001C5018BF00F5F0404FEA300018BF41F0BB
:100C600000415FEA6C5C00F02980BCF1FF3F08BFE7
:100C700040F080407047130C06BF12044FF0100C78
:100C80004FF0000C130E04BF12020CF1080C130FEE
:100C900004BF12010CF1040C930F04BF92000CF17D
:100CA000020CD30F04BF52000CF1010C11464FF09F
:100CB0000002A0F11F00A0EB0C00704711F0004FE4
:100CC00008BF704731F000413FF4D5AF0B0C06BFB1
:100CD00009044FF0100C4FF0000C0B0E04BF09027A
:100CE0000CF1080C0B0F04BF09010CF1040C8B0F65
:100CF00004BF89000CF1020CCB0F04BF49000CF1BA
:100D0000010CCCF12003A0EB0C0022FA03F302FA51
:100D10000CF241EA030100F10100704720F07F4C22
:100D200080EA030023F07F47ACEB070303F57C5315
:100D300000F0004003F1FF032DE980494FEA154B15
:100D400009B44FEA144325EA0B4E24EA03480FF294
:100D5000042606EB132749083E785FEA320203FBBC
:100D60000667C7F5000707FB06F64FEA54374FEA58
:100D7000D64606F1020607FB066CCCF1005C4FEA92
:100D80001C472CEA074C07FB06F40CFB06F504EBAA
:100D900015464FEA961634BF00204FF000404FEA48
:100DA000D13706FB07FC4FEA1C4C0CFB0BF7D21BA0
:100DB00003FB0CF761EB07010CFB0EF7B0EB0740F0
:100DC00072EB17420CFB08F734BFA2EB0742B2EB01
:100DD000074261EB17414FEA0C444FEA910706FBCB
:100DE00007FC4FEA1C4C0CFB0BF7B0EBC74072EB57
:100DF000573203FB0CF734BFA2EBC742B2EBC7423A
:100E000061EB57310CFB0EF7B0EBC70072EB57727A
:100E10000CFB08F734BFA2EBC702B2EBC70261EBD1
:100E20005771039F4FEA816141EA921104EBCC04B0
:100E30004FEAD1374FEA826206FB07FC42EA901282
:100E40004FEA80604FEA1C4C0CFB0BF7D21B03FBF4
:100E50000CF761EB07010CFB0EF7B0EB074072EBF0
:100E600017420CFB08F734BFA2EB0742B2EB074274
:100E700061EB17414FEA8C554FEA910704EB9C2434
:100E800006FB07FC4FEA1C4C0CFB0BF7B0EBC74012
:100E900072EB573203FB0CF734BFA2EBC742B2EB45
:100EA000C74261EB57310CFB0EF7B0EBC70072EB9A
:100EB00057720CFB08F734BFA2EBC702B2EBC702B4
:100EC00061EB577115EB4C254FEA816141EA9211B4
:100ED0004FEA82624FEAD13742EA901206FB07FCE2
:100EE00044F100044FEA80604FEA1C4C0CFB0BF706
:100EF000D21B03FB0CF761EB07010CFB0EF7B0EB09
:100F0000074072EB17420CFB08F734BFA2EB074215
:100F1000B2EB074261EB174115EB1C154FEA81312B
:100F200041EA92414FEA823242EA90424FEA8030EF
:100F30004FEA0C7644F1000448EA03434EEA0B48BA
:100F40004FF0000EB2EB080C71EB030724BF6246B2
:100F500039464EEB0E0E4FF0000B0018524149413E
:100F60004BEB0B0BB2EB080C71EB03077BF1000BA7
:100F700024BF624639464EEB0E0E4FF0000B0018B0
:100F8000524149414BEB0B0BB2EB080C71EB0307E1
:100F90007BF1000B24BF624639464EEB0E0E51EA40
:100FA000020718BF46F0010616EB0E7655F1000257
:100FB00054F1000103D5BDE88901BDE80088BDE812
:100FC0008901BDE80048B619524141EB0101A3F186
:100FD0000103704780807F7E7D7C7B7A797877768D
:100FE00076757473727171706F6E6E6D6C6C6B6A06
:100FF0006A696868676666656464636362616160A4
:10100000605F5F5E5E5D5D5C5C5B5B5A5A59595820
:10101000585757565655555554545353525252518A
:10102000515050504F4F4F4E4E4D4D4D4C4C4C4BE0
:101030004B4B4A4A4A494949484848474747474627
:101040004646454545444444444343434342424263
:1010500042414141002B9C4630D477002BD01CB537
:101060004FEA370703B44FF010004FF01001BAF108
:10107000000F06D0BCF1000FDCBF40F0080040F0CC
:1010800008014FF000000FBCBDE810400BF1010B50
:10109000BBF1010F08BF5FEA170722BF12F101027F
:1010A00011F101014FF0004143F1000300F0004055
:1010B00043EA00007047F9D35708D0E746EA0646EE
:1010C00013F1400F4FEA16461FDD13F1200FDFBF6B
:1010D00016430A46002120335B42BED0C3F12007ED
:1010E00046EA064602FA07F74FEA164646EA0706B8
:1010F000C3F1200722FA03F201FA07F721FA03F1FC
:101100004FF0000342EA0702A7E746EA020646EA72
:1011100006464FEA164646EA0106BCBF46EA0646C0
:10112000360C4FF000034FF000024FF0000194E73F
:101130002DE9804C9A46934670B491E8380007C870
:1011400031EA400C48BF34EA430C03D5FFF7E6FD13
:10115000FFF780FFF0BCBDE8008C2DE9804C9A467B
:10116000934670B491E8380007C810F0804F08BF6C
:1011700013F0804F03D100F005F8FFF76BFFF0BCD0
:10118000BDE8008C20F07F4780EA030023F07F4C0D
:1011900007EB0C03A3F57C5300F00040A3F1FE0322
:1011A00092F0000F00F0B38095F0000F00F0778010
:1011B0002DE901494FEA11404FEA144621EA00485F
:1011C00000FB06FC24EA064708FB06F607FB08F8C6
:1011D00000FB07F718EB06484CEB164C4FEA124B96
:1011E00018EB07484FEA15464CEB174022EA0B4E26
:1011F0000BFB06FC25EA06470EFB06F607FB0EFE78
:101200000BFB07F71EEB064E4CEB164C4FF000069F
:101210001EEB074E4CEB174B18EB0B0840F1000090
:1012200018EB0E0B58EB000840F100008F1A4FF03E
:1012300000013CBFC943661B14BFB5EB040C002181
:101240003CBFC943F61B4FEA17444EEA8E0E27EA0D
:1012500004454FEA1C4704FB07622CEA074C05FBD8
:1012600007F70CFB05F604FB0CFC16EB074642EBFC
:10127000174216EB0C4642EB1C421BEB060658EBE2
:101280000202414146EA9E0601D5BDE80189B61930
:10129000524141EB0101A3F10103BDE801894FEA8D
:1012A00014454FEA114724EA054621EA074C05FB9D
:1012B00007F406FB07F70CFB06F105FB0CFC11EB32
:1012C000074144EB17444FEA124711EB0C4144EB42
:1012D0001C4422EA074C05FB07F206FB07F70CFB50
:1012E00006F605FB0CFC16EB074642EB174216EB25
:1012F0000C4642EB1C456A1854F1000148BF704788
:10130000B619524141EB0101A3F10103704795F079
:10131000000F37D04FEA11424FEA144721EA024644
:1013200024EA074C02FB07F106FB07F70CFB06F467
:1013300002FB0CFC14EB074441EB17414FEA154745
:1013400014EB0C4441EB1C4125EA074C02FB07F56A
:1013500006FB07F70CFB06F602FB0CFC16EB074638
:1013600045EB174516EB0C4645EB1C42121951F1A3
:10137000000148BF7047B619524141EB0101A3F18A
:10138000010370474FEA14454FEA114724EA054626
:1013900021EA074C05FB07F106FB07F70CFB06F2F9
:1013A0004FF0000605FB0CFC12EB074241EB174126
:1013B00012EB0C4251EB1C4148BF7047921841EBB5
:1013C0000101A3F10103704708B50121082001F0D4
:1013D00037F84FF48070ADF8000010208DF803004E
:1013E00003208DF802006946044800F061FB4FF4C9
:1013F0008071024800F039FC08BD0000000C01407B
:1014000000BFFEE708B50121082001F019F84FF4EC
:101410000040ADF8000010208DF8030003208DF887
:1014200002006946014800F043FB08BD000C014082
:101430002DE9FF5F00F07EF8CC2000F0CBF84420CF
:1014400000F0C8F800F076F8CC2000F0C3F8BE2019
:1014500000F0C0F800F03AF8044600F037F8814692
:10146000B9F17F0F06DDE043C4B26FEA0900401C0A
:1014700000F0FF0904F00F0002F0C2FE834602F004
:1014800067FE00220D4BCDE9000102F043FC074648
:1014900088464FEA091141EA241002F0E7FB3A4678
:1014A0004346CDE9020102F02DFB054602F0F8FAB1
:1014B0008246504604B0BDE8F09F00000000B03FF7
:1014C00010B5FFF79FFF00F035F810BD70B5002490
:1014D000002528E000F06CF84FF40041144800F0BB
:1014E000C6FB022001F046FD4FF40041104800F019
:1014F000BCFB032001F03EFD64104FF400410C489A
:1015000000F0B5FB00F044F8052001F033FD4FF486
:101510000041074800F0A0FB08B144F080043C20E3
:1015200001F028FD6D1C082DD4DB204670BD0000A5
:10153000000C014010B5FFF765FF00F039F84FF4DB
:101540000041124800F093FB012001F013FD4FF41D
:1015500000410E4800F089FB40F2EE2001F00AFD48
:101560004FF40041094800F082FB4FF4FA7001F09B
:1015700001FD4FF40041054800F06EFB04464FF4B6
:101580000041024800F073FB10BD0000000C014058
:1015900008B54FF40040ADF8000048208DF8030076
:1015A0006946024800F084FA08BD0000000C0140C2
:1015B00008B54FF40040ADF8000010208DF803008E
:1015C00003208DF802006946014800F071FA08BD59
:1015D000000C014070B50446002520E04FF40041A6
:1015E000104800F042FB0F2001F0C4FC04F00100A1
:1015F00028B10122D1030B4800F03BFB05E000229B
:101600004FF40041074800F034FB2D2001F0B2FCFC
:101610004FF40041034800F02AFB64106D1C082DB4
:10162000DCDB70BD000C01407047000010B50A20E3
:1016300001F07AFC02211F4800F00EFB002835D192
:101640001D480068C8B11D48006808B9012000E0C5
:1016500000201A4908600A2001F066FC1848D0F8FA
:10166000A00108B9012000E000201449086001F041
:10167000A9FB14A0FEF700FE18E01048006808B9A6
:10168000012000E000200D4908600A2001F04CFC18
:101690000B48D0F8A00108B9012000E0002007495C
:1016A000086000F093FB09A0FEF7E6FD022000F0C1
:1016B00075F910BD0018014068030020A081214287
:1016C00000802142B6CFBFAA0D0A0000C1ACBDD335
:1016D0000D0A000010B50A2001F026FC0421214863
:1016E00000F0BAFA002838D11F48006801281DD040
:1016F0001E48006808B9012000E000201B4908606E
:101700000A2001F011FC1A48D0F8A00108B9012004
:1017100000E000201549086013480068154908607A
:101720000120114908601449086016E00F4800685C
:1017300008B9012000E000200C4908600A2001F0EF
:10174000F3FB0B48D0F8A00108B9012000E000200D
:1017500006490860002008490860042000F01EF9CE
:1017600010BD0000001801406C030020A081214240
:101770000080214250000020A403002010B50A2060
:1017800001F0D2FB08211B4800F066FA00282DD199
:1017900019480068022815D1032018490860002064
:1017A0001749086017A0FEF767FD154C2378174C02
:1017B0002278124C2178164C207800F00FFD012081
:1017C000144908601448006808B9012000E00020AE
:1017D000114908600A2001F0A7FB1048D0F8A001C9
:1017E00008B9012000E000200B490860082000F043
:1017F000D5F810BD00180140700300206C030020D4
:10180000B8030020B9A4D7F70D0A0000B4030020E4
:10181000A003002094012342A081214200802142A4
:1018200010B50A2001F080FB10211B4800F014FACB
:1018300000282CD1022019490860002018490860AE
:1018400018A0FEF719FD194C2378154C2278134C7B
:101850002178174C207800F0C1FC01201549086060
:101860001548D0F8A00108B9012000E00020114976
:101870000C3108600A2001F057FB0F48D0F8A00196
:1018800008B9012000E000200A490C31086010204E
:1018900000F084F810BD0000001801406C03002027
:1018A000B4030020BCD3C8C80D0A0000B803002050
:1018B000A003002094812142008021420EB500F057
:1018C000DFF90121084600F0BBFD0221042000F0F1
:1018D000CFF80420019000208DF808000C208DF82E
:1018E000090001208DF80A0001A800F05DF803212D
:1018F000042000F0BDF80820019001A800F054F881
:101900000421084600F0B4F81020019001A800F06E
:101910004BF80121042000F0ABF80220019001A84F
:1019200000F042F807208DF8000002208DF8010039
:1019300003208DF8020001208DF80300684600F0B6
:1019400003FA08208DF8000002208DF801008DF8C0
:10195000020001208DF80300684600F0F5F9092027
:101960008DF8000002208DF8010001208DF80200A2
:101970008DF80300684600F0E7F90A208DF80000B2
:1019800002208DF8010000208DF8020001208DF862
:101990000300684600F0D8F90EBD00000149086058
:1019A0007047000014040140002123498279002A75
:1019B0003AD00A46126803689A430B461A600A1D19
:1019C000126803689A430B1D1A60027911440A6871
:1019D00003681A430A60184A0832126803689A4377
:1019E000154B08331A601A1D126803689A43124B8C
:1019F0000C331A604279102A0ED11A1F126803683C
:101A00001A430D4B08331A601A1D126803681A43F3
:101A1000094B0C331A600DE00749427911440A68FA
:101A200003681A430A6005E0027911440A680368F2
:101A30009A430A60704700000004014008B5012184
:101A4000082000F0FDFC8020ADF8000010208DF88B
:101A5000030003208DF802006946044800F028F8CE
:101A60008021024800F003F908BD0000000C01408D
:101A700030B500228B071C0F0F2303FA04F20B4B27
:101A80008C1053F824309343084C8D1044F82530C3
:101A900023468C1053F824308C07240F00FA04F4EA
:101AA0002343024C8D1044F8253030BD080001401E
:101AB0002DE9F041024600250026002000230024E5
:101AC000002791F803C00CF00F0591F803C00CF04B
:101AD000100CBCF1000F03D091F802C04CEA0505D0
:101AE00091F800C0BCF1000F31D0146800202BE049
:101AF0004FF0010C0CFA00F3B1F800C00CEA030639
:101B00009E4220D183004FF00F0C0CFA03F7BC4328
:101B100005FA03FC4CEA040491F803C0BCF1280F59
:101B200006D14FF0010C0CFA00FCC2F814C00AE018
:101B300091F803C0BCF1480F05D14FF0010C0CFA2D
:101B400000FCC2F810C0401C0828D1D31460B1F8C2
:101B500000C0BCF1FF0F34DD546800202EE000F11E
:101B6000080C4FF0010808FA0CF3B1F800C00CEAB9
:101B700003069E4221D183004FF00F0C0CFA03F7AD
:101B8000BC4305FA03FC4CEA040491F803C0BCF121
:101B9000280F05D100F1080C08FA0CF8C2F81480DF
:101BA00091F803C0BCF1480F07D100F1080C4FF0C9
:101BB000010808FA0CF8C2F81080401C0828CED39F
:101BC0005460BDE8F0810000F0B50A46002300240F
:101BD0000021002500F00046B6F1004F02D11D4E55
:101BE000F16901E01B4E7168C0F3034583B200F454
:101BF0004016B6F5401F08D121F07061154E766889
:101C000026F07066134F7E6012E000F48016B6F581
:101C1000801F06D1032606FA05F4A14341F0706146
:101C200006E0460D360103FA06F6B14341F0706155
:101C300022B1460D360103FA06F6314300F00046A4
:101C4000B6F1004F02D1034EF16101E0014E716027
:101C5000F0BD0000000001400246002093680B40E8
:101C60000BB1012000E00020704741617047016125
:101C700070470AB1016100E04161704700BFFEE7B3
:101C800008B50121442000F0DBFB1E20ADF8000068
:101C900048208DF8030069460148FFF709FF08BD99
:101CA0000018014008B50121482000F0C9FB2020A0
:101CB000ADF8000010208DF8030003208DF802001D
:101CC00069460948FFF7F4FE20210748FFF7CFFFD8
:101CD0002020ADF8000069460448FFF7E9FE202106
:101CE0000248FFF7C4FF08BD000C01400018014086
:101CF00008B50121082000F0A3FB4FF40050ADF817
:101D0000000010208DF8030003208DF802006946C2
:101D10000A48FFF7CDFE4FF400510848FFF7A7FF30
:101D20004FF48040ADF8000069460448FFF7C0FE5C
:101D30004FF480410148FFF79AFF08BD000C0140B5
:101D400000BFFEE77047000070B5002100230F229E
:101D5000C47804B3154C246804F4E064C4F5E0646A
:101D6000210AC1F10403CA40447804FA03F18478DB
:101D70001440214309010E4C0678A155047804F063
:101D80001F050124AC4005786D11AD0005F1E0257B
:101D9000C5F8004109E0047804F01F050124AC40B7
:101DA000044D0678761145F8264070BD0CED00E034
:101DB00000E400E080E100E002490143024A1160D2
:101DC000704700000000FA050CED00E010B500249B
:101DD00000BF0CE04848015D484800F0EEFF00BF3E
:101DE0004021464800F01CFF0028F9D0641C4248FE
:101DF000005D0028EED14FF47A7001F095F80024D0
:101E00000CE03F48015D3D4800F0D7FF00BF402196
:101E10003A4800F005FF0028F9D0641C3848005DFE
:101E20000028EED102E0012001F0A4F83548006856
:101E30000228F8D100203349086000240CE0324821
:101E4000015D2E4800F0B9FF00BF40212B4800F093
:101E5000E7FE0028F9D0641C2B48005D0028EED175
:101E600002E0012001F086F8264800680228F8D137
:101E700000202449086000240CE02448015D1F482C
:101E800000F09BFF00BF40211C4800F0C9FE002865
:101E9000F9D0641C1D48005D0028EED102E001204D
:101EA00001F068F8174800680228F8D100201549A9
:101EB000086000240CE01648015D104800F07DFF2A
:101EC00000BF40210D4800F0ABFE0028F9D0641C93
:101ED0000F48005D0028EED102E0012001F04AF831
:101EE000084800680228F8D100200649086001204F
:101EF0000849086010BD0000540000200044004064
:101F000064000020380000208D000020F300002035
:101F10004001002068030020704700002DE9F041D7
:101F200006460D461746002400BF0CE05248015DEE
:101F3000524800F042FF00BF4021504800F070FEC0
:101F40000028F9D0641C4C48005D0028EED1002424
:101F50000CE04B48015D494800F02FFF00BF4021D5
:101F6000464800F05DFE0028F9D0641C4448005D3E
:101F70000028EED106F13001404800F01EFF00BFFE
:101F800040213E4800F04CFE0028F9D000240CE02F
:101F90003C48015D394800F010FF00BF4021374840
:101FA00000F03EFE0028F9D0641C3648005D002891
:101FB000EED10A2095FBF0F030301FFA80F8414650
:101FC0002E4800F0FAFE00BF40212C4800F028FE09
:101FD0000028F9D00A2095FBF0F100FB11503030B9
:101FE0001FFA80F84146254800F0E7FE00BF402177
:101FF000224800F015FE0028F9D000240CE0224809
:10200000015D1E4800F0D9FE00BF40211B4800F0D2
:1020100007FE0028F9D0641C1B48005D0028EED1A3
:1020200007F13001154800F0C8FE00BF40211348F9
:1020300000F0F6FD0028F9D000240CE01348015D03
:102040000E4800F0BAFE00BF40210C4800F0E8FD49
:102050000028F9D0641C0D48005D0028EED102E094
:10206000012000F087FF0A4800680228F8D100200C
:1020700007490860BDE8F0818A0100200044004063
:102080001E020020300200204B020020A50200208A
:10209000380000202DE9F04105460E461746002481
:1020A00000BF0CE04648015D464800F086FE00BFD8
:1020B0004021444800F0B4FD0028F9D0641C404899
:1020C000005D0028EED100240CE03F48015D3D4852
:1020D00000F073FE00BF40213A4800F0A1FD002847
:1020E000F9D0641C3848005D0028EED105F13001BC
:1020F000344800F062FE00BF4021324800F090FDFD
:102100000028F9D000240CE03048015D2D4800F093
:1021100054FE00BF40212B4800F082FD0028F9D07A
:10212000641C2A48005D0028EED106F130012548E4
:1021300000F043FE00BF4021224800F071FD00285E
:10214000F9D000240CE02248015D1E4800F035FE65
:1021500000BF40211B4800F063FD0028F9D0641C3B
:102160001B48005D0028EED107F13001154800F052
:1021700024FE00BF4021134800F052FD0028F9D092
:1021800000240CE01348015D0E4800F016FE00BF6D
:1021900040210C4800F044FD0028F9D0641C0D4893
:1021A000005D0028EED102E0012000F0E3FE0A48C5
:1021B00000680228F8D1002007490860BDE8F081D6
:1021C0008A01002000440040650200207E020020B9
:1021D00093020020A5020020380000202DE9F047DE
:1021E00005460E4617469846002400BF0CE07C4882
:1021F000015D7C4800F0E1FD00BF4021794800F01E
:102200000FFD0028F9D0641C7548005D0028EED150
:1022100000240CE07448015D724800F0CEFD00BF60
:102220004021704800F0FCFC0028F9D0641C6E4886
:10223000005D0028EED10A2095FBF0F030301FFA47
:1022400080F94946674800F0B8FD00BF4021654865
:1022500000F0E6FC0028F9D00A2095FBF0F100FB25
:10226000115030301FFA80F949465E4800F0A5FD54
:1022700000BF40215B4800F0D3FC0028F9D02E219C
:10228000584800F09AFD00BF4021564800F0C8FCB5
:102290000028F9D0681B642148430A2190FBF1F023
:1022A00030301FFA80F949464E4800F086FD00BFE5
:1022B00040214C4800F0B4FC0028F9D06420684369
:1022C0000A2190FBF1F201FB120030301FFA80F975
:1022D0004946444800F071FD00BF4021414800F0EC
:1022E0009FFC0028F9D000240CE04048015D3D48E7
:1022F00000F063FD00BF40213A4800F091FC002847
:10230000F9D0641C3948005D0028EED106F1300197
:10231000344800F052FD00BF4021324800F080FCFC
:102320000028F9D000240CE03148015D2D4800F070
:1023300044FD00BF40212B4800F072FC0028F9D07A
:10234000641C2B48005D0028EED107F130012548C0
:1023500000F033FD00BF4021224800F061FC00285E
:10236000F9D000240CE02348015D1E4800F025FD53
:1023700000BF40211B4800F053FC0028F9D0641C2A
:102380001C48005D0028EED108F13001154800F02E
:1023900014FD00BF4021134800F042FC0028F9D092
:1023A00000240CE01448015D0E4800F006FD00BF5B
:1023B00040210C4800F034FC0028F9D0641C0E4881
:1023C000005D0028EED102E0012000F0D3FD0B48B3
:1023D00000680228F8D1002008490860BDE8F087AD
:1023E000C6020020004400401E0300202F030020EE
:1023F0003C03002048030020FA020020380000209F
:1024000029B1064AD2690243044BDA6104E0034A67
:10241000D2698243014BDA6170470000001002402C
:1024200029B1064A12690243044B1A6104E0034AC7
:1024300012698243014B1A6170470000001002408C
:1024400029B1064A92690243044B9A6104E0034AA7
:1024500092698243014B9A6170470000001002406C
:1024600029B1064AD2680243044BDA6004E0034A09
:10247000D2688243014BDA607047000000100240CE
:1024800030B500210022002400232D4D6D6805F099
:102490000C0121B1042905D0082923D105E0294DDB
:1024A000056022E0274D05601FE0254D6D6805F4AD
:1024B0007012234D6D6805F48034022505EB9242BD
:1024C0001CB9214D554305600BE01D4D6D6805F4A9
:1024D00000351DB11C4D5543056002E0194D5543B3
:1024E000056002E0174D056000BF00BF144D6D6828
:1024F00005F0F0010909154D6B5C0568DD4045608C
:102500000F4D6D6805F4E061090A104D6B5C45687C
:10251000DD4085600A4D6D6805F46051C90A0B4DB8
:102520006B5C4568DD40C560054D6D6805F4404154
:10253000890B074D6B5CC568B5FBF3F5056130BDD4
:102540000010024000127A0000093D003C0000200B
:102550004C000020704710B500F002F810BD0000DC
:102560000CB50020019000903348006840F48030A2
:102570003149086000BF3048006800F40030009026
:102580000198401C0190009818B90198B0F5A06F0F
:10259000F1D12948006800F4003010B1012000900A
:1025A00001E0002000900098012843D123480068F2
:1025B00040F01000214908600846006820F0030040
:1025C00008600846006840F0020008601A48406849
:1025D000194948600846406848600846406840F429
:1025E000806048600846406820F47C1048600846D7
:1025F000406840F4E81048600846006840F0807089
:10260000086000BF0C48006800F000700028F9D096
:102610000948406820F003000749486008464068C0
:1026200040F00200486000BF0348406800F00C0022
:102630000828F9D10CBD0000001002400020024023
:10264000042808D14FF0E021096941F004014FF05E
:10265000E022116107E04FF0E021096921F0040157
:102660004FF0E022116170477047000010B5134829
:10267000006840F0010011490860084640681049B0
:1026800008400E494860084600680E4908400B495A
:1026900008600846006820F480200860084640680A
:1026A00020F4FE0048604FF41F008860FFF753FFDE
:1026B0004FF000600449086010BD000000100240A7
:1026C0000000FFF8FFFFF6FE08ED00E008B501216D
:1026D0000420FFF7B5FE4FF40060ADF800001020B5
:1026E0008DF8030003208DF8020069460A48FFF7C1
:1026F000DFF94FF400610848FFF7B9FA4FF4805052
:10270000ADF8000069460448FFF7D2F94FF4805154
:102710000148FFF7ACFA08BD0008014030B589B0A8
:1027200005460C4601210220FFF76AFE012109201F
:10273000FFF786FE01211A48FFF746FA4020ADF860
:10274000200018208DF8230003208DF8220008A90E
:102750001448FFF7ADF9ADF81850ADF8144000205B
:10276000ADF81A00ADF8160005A90F4800F00EF9F3
:102770007020ADF804000120ADF806000020ADF88F
:102780000C0001A9084800F0A1F80821064800F053
:10279000EFF80121044800F072F809B030BD0000E4
:1027A00000081A00000C01400004004010B501218F
:1027B000134800F070F808B312480068401C114933
:1027C0000860084600684FF47A7190FBF1F088B118
:1027D00000200C4908600C480068401C0A49086049
:1027E000084600680949884202D10020064908606D
:1027F00000F0F4FB0121024800F03EF810BD00009B
:1028000000080040C0030020BC03002080510100EC
:102810001FB501210420FFF7F3FD4FF47A70ADF8E6
:1028200008004720ADF804000020ADF80A00ADF81C
:10283000060001A90F4800F0A9F84FF4A060FFF7C7
:10284000BBFA1E208DF8000001208DF80100032046
:102850008DF8020001208DF803006846FFF774FA36
:1028600001221146034800F027F80021014800F03A
:1028700006F81FBD00080040CA430282704721B11C
:10288000028842F00102028004E002884FF6FE73E3
:102890001A400280704730B5024600200023002411
:1028A000158A05EA0103958905EA010413B10CB103
:1028B000012000E0002030BD1AB183890B438381E1
:1028C00002E083898B4383817047000070B5002448
:1028D00000220023058C4FF6EF7635400584028CEC
:1028E0008388048B48F6FF752C404FF6FF452C403B
:1028F0000D884FF6FF7606EA05252C434FF6DF7567
:102900002A400D8906EA05152A434D8806EA051571
:102910002A43154DA84202D0144DA8421DD14FF6AE
:102920007F752A404D894FF6FF7606EA05152A4342
:102930004FF6BF752A408D8806EA05152A434FF6E3
:10294000FF352B404FF2FF752B408D8906EA850538
:102950002B43CD8906EA85052B4383800483CD88EC
:102960000587028470BD0000002C01400034014046
:102970000A460021018B4FF2FF7319404FF6FF7397
:1029800003EA0223194301837047000000220288F2
:102990001D4B98420ED01D4B98420BD0B0F1804F8A
:1029A00008D01B4B984205D01A4B984202D01A4BC4
:1029B000984204D14FF68F731A404B881A43174B35
:1029C000984207D0164B984204D04FF6FF431A4066
:1029D000CB881A4302808B8883850B8803850A4B3A
:1029E00098420BD0094B984208D00E4B984205D024
:1029F0000D4B984202D00D4B984201D10B7A0386C1
:102A00000123838270470000002C01400034014004
:102A10000004004000080040000C0040001000408E
:102A200000140040004001400044014000480140C3
:102A300010B540F225511E4800F0FFF820B31C48A5
:102A400000F0B6F9C4B21B48008800F40040D8B9C1
:102A50001848008800F4804070B10A2C03D0002090
:102A60001449088023E01348008840F400401149CD
:102A7000088000F0E5F91AE00D2C06D10D48008819
:102A800040F480400B49088011E00A480088C0F3F8
:102A90000D0009490C5407480088401C054908806E
:102AA00008460088B0F5C87F01DB0020088010BD13
:102AB000003801401C000020C403002010B540F283
:102AC0002551234800F0B9F8002840D0204800F0F4
:102AD0006FF9C4B221461F4800F06FF91E48006824
:102AE000A8B17D2C09D11D48006810B101201C49F6
:102AF000086000201849086016E01A48174909685C
:102B0000445416480068401C144908600CE07B2CB3
:102B10000AD10120104908604FF4C8711148FDF72F
:102B200039FC00200D4908604B2C07D10E48006885
:102B300001280CD102200C49086008E04F2C03D179
:102B400001200949086002E000200749086010BD23
:102B500000440040003801402C00002030000020DC
:102B600034000020540500203800002021B1828963
:102B700042F40052828104E082894DF6FF731A40CC
:102B80008281704710B504462048844209D1012152
:102B90008803FFF765FC00214FF48040FFF760FCDD
:102BA00032E01B48844209D101214804FFF738FC78
:102BB00000214FF40030FFF733FC25E01548844234
:102BC00009D101218804FFF72BFC00214FF480205C
:102BD000FFF726FC18E01048844209D10121C804FF
:102BE000FFF71EFC00214FF40020FFF719FC0BE05B
:102BF0000A48844208D101210805FFF711FC002191
:102C00004FF48010FFF70CFC10BD000000380140AD
:102C10000044004000480040004C0040005000408C
:102C200002460020B1F5007F00D100BF13880B40A1
:102C30000BB1012000E00020704770B5024600246F
:102C400000230025002040F66A16B14200D100BFE3
:102C5000C1F3421501F01F03012606FA03F3012D0B
:102C600002D19689334006E0022D02D1168A334004
:102C700001E0968A33400C12012606FA04F4168805
:102C8000344013B10CB1012000E0002070BDF0B55C
:102C90000346002400260025002040F66A17B942AA
:102CA00000D100BF1846C1F3421401F01F060127EE
:102CB00007FA06F5012C01D10C3004E0022C01D1F9
:102CC000103000E014301AB107682F43076002E0AB
:102CD0000768AF430760F0BD2DE9F04786B00546B1
:102CE0000E460024A24600BFA1460027B08900B1CD
:102CF00000BF2F462C8A4CF6FF700440F088044336
:102D00002C82AC894EF6F3100440B0883189084318
:102D1000718908430443AC81AC8A4FF6FF400440FC
:102D2000B0890443AC8201A8FFF7AAFB1F48874281
:102D300002D1DDF810A001E0DDF80CA0A88900F4B4
:102D4000004040B10AEBCA0000EB0A1031684900AC
:102D5000B0FBF1F807E00AEBCA0000EB0A1031689B
:102D60008900B0FBF1F86420B8FBF0F00401200901
:102D7000642101FB1089A88900F4004040B1322091
:102D800000EBC900B0FBF1F000F00700044308E0DD
:102D9000322000EB09106421B0FBF1F000F00F00CD
:102DA00004432C8106B0BDE8F087000000380140E4
:102DB00001468888C0F308007047C1F3080282808A
:102DC0007047000010B500240CE01848015D184859
:102DD000FFF7F3FF00BF40211548FFF721FF002850
:102DE000F9D0641C1148005D0028EED14FF47A70D0
:102DF00000F09AF800240CE00E48015D0C48FFF743
:102E0000DCFF00BF40210A48FFF70AFF0028F9D085
:102E1000641C0848005D0028EED14FF47A7000F081
:102E200083F800200449086010BD00005400002011
:102E300000440040540300206803002000BFFEE768
:102E400070B51248008800F40040F0B10F480088C7
:102E5000C0F30D050EA0FDF70FFA00240DE0124897
:102E6000015D1248FFF7A9FF00BF40210F48FFF79F
:102E7000D7FE0128F9D1601C84B2AC42EFDB0CA074
:102E8000FDF7FAF900200149088070BD1C00002000
:102E90000D0AC4FAB7A2CBCDB5C4CFFBCFA2CEAA40
:102EA0003A0D0A0D0A000000C4030020003801405A
:102EB0000D0A0D0A00000000490050EAC12018BFA9
:102EC00004204A0D18BF40F0010040F2FF72B2EB3F
:102ED000515F08BF40F00200012808BF052070477D
:102EE00000BF704710B56FF00400FFF7A9FB0A4858
:102EF00000680A49B0FBF1F00949087008460078FB
:102F000000EB4001C1EBC0104FF6FF7101EAC000B9
:102F10000449088010BD00000000002000127A0063
:102F200014000020160000200146114A12884A436E
:102F30004FF0E0235A6100229A611A46126942F06A
:102F400001021A6100BF4FF0E022106900F0010297
:102F50001AB100F48032002AF5D04FF0E022126955
:102F600022F001024FF0E0231A6100229A617047BB
:102F7000160000200146114A12784A434FF0E02320
:102F80005A6100229A611A46126942F001021A61DE
:102F900000BF4FF0E022106900F001021AB100F406
:102FA0008032002AF5D04FF0E022126922F00102AF
:102FB0004FF0E0231A6100229A617047140000204C
:102FC00000BF054A128802F04002002AF9D0C2B2BE
:102FD000014B1B1D1A8070470038014010B500F0EE
:102FE000AFFB6748006828B90120664908600020E7
:102FF0006549086062480068022809D16348006892
:10300000022805D10120624908600020614908605A
:1030100061480068142190FBF1F201FB120010B925
:1030200001205E4908605C480068142190FBF1F2C1
:1030300001FB1200012801D1594908605648006877
:10304000142190FBF1F201FB1200022802D10120B1
:10305000544908604A48006848B100F027FA012046
:103060005149086051480068401C50490860444874
:10307000006809287ED2DFE800F07D727D051D35ED
:103080004D656B004948016849A0FDF7F5F84748D0
:103090000068272803DA002000F08AFA09E0434894
:1030A0000068272805D1012000F082FA00203F495E
:1030B000086063E03D48016840A0FDF7DDF83B484B
:1030C0000068272803DA002000F096FA09E0374864
:1030D0000068272805D1012000F08EFA002033492E
:1030E00008604BE03148016837A0FDF7C5F82F486C
:1030F0000068272803DA002000F0A2FA09E02B4834
:103100000068272805D1012000F09AFA00202749FD
:10311000086033E0254801682EA0FDF7ADF823488C
:103120000068272803DA002000F0DEF809E01F48D5
:103130000068272805D1012000F0D6F800201B499F
:1031400008601BE026A0FDF797F800F02FF915E0C6
:1031500026A0FDF791F800F0FFF80FE00AE025A0A7
:10316000FDF78AF800F04AF810480068401E0F4941
:10317000086003E000200D49086000BF00BF10BDDB
:103180006C030020B40300209481214270030020CE
:10319000B803002094012342BC030020A8030020B0
:1031A000AC030020B00300209C0300208403002017
:1031B0005741534831A3BA25640D0A00574153487B
:1031C00032A3BA25640D0A005741534833A3BA25E8
:1031D000640D0A002048414952A3BA25640D0A0033
:1031E00053454E44444154410D0A00004F56455248
:1031F0000D0A0000455849540D0A000010B5314829
:103200000068F8B14FF400512F48FEF730FD002060
:103210002E4908604FF480412B48FEF728FD00201E
:103220002B49086080212848FEF721FD002029490C
:1032300008604FF480512848FEF719FD0020274907
:1032400008603DE0264800682649086000202449BF
:10325000086024480068032806D004280DD00528FB
:1032600014D006282AD11AE04FF400511648FEF770
:10327000FCFC01201549086021E04FF48041124810
:10328000FEF7F3FC01201249086018E04FF40051EA
:103290000D48FEF7EAFC01200C4908600FE04FF4EE
:1032A00080510D48FEF7E1FC80210748FEF7DDFC68
:1032B00001200A4908600749086000E000BF00BF1C
:1032C00010BD0000A4030020000C01407803002082
:1032D0007C030020800300200008014074030020CC
:1032E000500000206C03002010B50446154800680B
:1032F000012803D11448006801280FD074B94FF495
:1033000080511248FEF7B1FC80211148FEF7ADFC58
:1033100001200C4908600C49086011E084B180214B
:103320000B48FEF7A4FC4FF480510848FEF79FFCC1
:103330000020044908600449086007200549086026
:1033400010BD00007403002080030020000801402D
:10335000000C01406C03002010B5002418E0104858
:10336000006808B9012000E000200D4908604FF412
:103370007A70FFF7D9FD0B48D0F8A00108B90120F9
:1033800000E00020064908606420FFF7CDFD641CC2
:10339000052CE4DB00F078F900200349086010BD3B
:1033A000A0812142008021429401234210B50120D6
:1033B000FFF7BAFD012003490860082002490860B0
:1033C00010BD0000B00300206C03002000F05CF989
:1033D0004FF47A70FFF7A8FD01212448FFF74FFA58
:1033E00042E02348006870B12248006800F0E8FE1F
:1033F000C4B221490A78214908782146FEF78EFD9A
:1034000000201B4908601E48006850B11D4B1A7807
:103410001D4B19781D4B1878FEF73CFE002018490B
:1034200008601B48006880B11248006800F0C8FEC0
:10343000C4B2184803781848027818480178204622
:10344000FEF7CCFE0020124908601548006840B124
:1034500014A0FCF711FF144800F0B4F90020104943
:1034600008600120FFF786FDBBE700000008004070
:10347000A8030020A0030020780300209C03002064
:10348000AC03002080030020700300207C03002098
:10349000B0030020B8030020B40300206C03002018
:1034A000340000200D0A0000540500202DE9F047EB
:1034B0003848006802282BD13748006800F0A0FE89
:1034C000044636480168204600F031FF08D24FF428
:1034D00000613348FEF7C9FB01203249086056E01D
:1034E0003148006800F08CFE04462C4801682046F4
:1034F00000F09EFE08D24FF400612948FEF7B7FBAA
:1035000000202849086042E00220264908603EE089
:103510002148006800F0AAFB80460022234B00F0FF
:10352000F1FA04460D461D48006800F011FE0646FB
:1035300022462B4600F0B2FB08D24FF40061184837
:10354000FEF793FB01201749086020E01648006849
:1035500000F08CFB06460022144B00F00FFD0446E1
:103560000D460E48006800F0F3FD804622462B46CB
:1035700000F0CEFC08D24FF400610948FEF777FB5B
:1035800000200849086002E0022006490860BDE802
:10359000F08700006C03002090030020A0030020AF
:1035A0000008014070030020940300200000E03F69
:1035B00010B504460D480068012809D044B94FF4FD
:1035C00000510B48FEF751FB0120084908600BE051
:1035D00054B14FF400510648FEF749FB002003495F
:1035E000086004200349086010BD00007803002033
:1035F000000C01406C03002010B504460D48006823
:10360000012809D044B94FF480410B48FEF72DFB47
:103610000120084908600BE054B14FF4804106488E
:10362000FEF725FB002003490860052003490860D8
:1036300010BD00007C030020000C01406C03002042
:1036400010B504460D480068012809D044B94FF46C
:1036500000510B48FEF709FB0120084908600BE008
:1036600054B14FF400510648FEF701FB0020034916
:10367000086006200349086010BD000078030020A0
:10368000000C01406C03002010B5FEF7D7F9FEF7DF
:103690002FFBFFF71BF81920184908601E20184956
:1036A000086000201749086017490860174908603A
:1036B00017490860174908601749086017490860EA
:1036C00017490860174908601749086017490860DA
:1036D00017490860174908601548006808B90120B3
:1036E00000E00020144908601248006808B9012071
:1036F00000E000201149086010BD00009003002088
:103700009403002084030020880300208C03002001
:10371000BC03002070030020740300207803002005
:103720007C030020800300209C0300206C03002009
:10373000B4030020B8030020948121429401234265
:1037400070B5FDF775FE064908600846006800F090
:10375000FFFC044622460B4602A0FCF78DFD70BD1F
:10376000A003002074656D703D25660D0A00000001
:10377000FFF7B8FBFFF74CF84FF4E13000F028F901
:103780004FF4E13000F0CEF8FFF71CFBFEF71EFB14
:10379000FEF788FAFDF718FEFEF772FAFEF78EF8CC
:1037A000FDF78EFEFEF74AF9FEF7A2FAFEF78EFF4E
:1037B000002140F28330FEF7B1FFFFF707FE00BFA4
:1037C000FEE7000070B5054639A12846FCF7D0FD9C
:1037D000041E0ED0E17AA07A303800EB800001EBB5
:1037E00040003038354908600846016834A0FCF7CD
:1037F00043FD35A12846FCF7BBFD041E0ED0E17A3F
:10380000A07A303800EB800001EB400030383149BD
:103810000860084601682AA0FCF72EFD2EA1284664
:10382000FCF7A6FD041E19D002202F4908600020D5
:103830002E49086001202E4908602EA0FCF71CFDCF
:103840002E48006800F0BCFCC6B22D48037827481B
:103850000278254801783046FEF7C0FC29A12846A9
:10386000FCF786FD041E22D003201F4908600020BB
:103870002349086001202749086027A0FCF7FCFCC9
:103880002748D0F8940108B9012000E00020214920
:1038900008601A48006800F093FCC6B21848037824
:1038A00012480278104801783046FEF797FC70BD48
:1038B0002274656D706D696E223A000090030020DD
:1038C000202025640D0A00002274656D706D6178FA
:1038D000223A0000940300202274656D706F7065B9
:1038E0006E223A31000000006C030020B403002077
:1038F00094812142C9CFCBAE00000000A00300207C
:10390000B803002022776F726B6F70656E223A31B8
:103910000000000094012342B9A4D7F70000000082
:103920000000234210B586B0044601214804FEF78A
:1039300067FD01210420FEF783FD2348FFF722F9EC
:103940000420ADF8140003208DF8160018208DF81F
:10395000170005A91D48FEF7ABF80820ADF81400C4
:1039600004208DF8170005A91848FEF7A1F82620B5
:103970008DF8000001208DF8010000208DF8020074
:1039800001208DF803006846FEF7DEF9019400205F
:10399000ADF80800ADF80A00ADF80C00ADF8100065
:1039A0000C20ADF80E0001A90748FFF795F9012298
:1039B00040F225510448FFF76AF901210248FFF758
:1039C000D5F806B010BD00000044004000080140DA
:1039D00010B586B00446012144F20400FEF730FD24
:1039E0004FF40070ADF8140003208DF81600182075
:1039F0008DF8170005A91D48FEF75AF84FF48060AE
:103A0000ADF8140004208DF8170005A91748FEF73B
:103A10004FF825208DF8000001208DF801000220CC
:103A20008DF8020001208DF803006846FEF78CF93E
:103A300001940020ADF80800ADF80A00ADF80C00C4
:103A4000ADF810000C20ADF80E0001A90848FFF7F2
:103A500043F9012240F225510548FFF718F90121E9
:103A60000348FFF783F806B010BD000000080140CE
:103A70000038014010B500290AD00878002807D086
:103A800005487844FDF798F8002801D0002010BDC3
:103A90000248784410BD0000C6090000BE090000BD
:103AA00021F00042A2F16052B2F5801F01F0004304
:103AB00028BFD2F17F6C0BD95FEA001C43EAC20237
:103AC00042EB507018BF704728BF20F001007047CC
:103AD000B2F5801FBCBF184670474FEA410C1CF579
:103AE000001F02D2084600F01DBC70B500F0BCF902
:103AF00000000089FFF7F6BF4FF00040A0F58000FE
:103B00007047000010B591EA030F48BF83F00043EF
:103B100000F13C82841A71EB030C05D2121943EBBD
:103B20000C03001B61EB0C01DFF824E14FEA115498
:103B3000A4EB135C1EEA430F18BF9EEA445F73D0E8
:103B400023EA0E03DCF1200E21EA045143F4801332
:103B500032D322FA0CFE10EB0E0023FA0CFE41EBDE
:103B60000E01CCF1200E03FA0EFE10EB0E0051F107
:103B70000001B1F5801FCCF1200E32D201EB0451CF
:103B800012FA0EF2BDE8104058BF7047401C38BF13
:103B90005FEA420218BF7047002814BF20F00100FE
:103BA00041F100014FEA410313F5001F38BF704790
:103BB000A1F1C04100F0A6B9012A43EB0302ACF128
:103BC000200CDCF11F0E32BF4FF0000E23FA0CF375
:103BD00010EB030041EB0451B4EB115FD0D0A1EB2B
:103BE000045101F5801149085FEA300001EB0451EE
:103BF0000ED350F1000038BF12FA0EFE08D1BDE816
:103C00001040C9E7401C38BF5FEA4202CAD1C3E78F
:103C1000BDE810404FEA410313F5001F38BF70475D
:103C2000A1F1C04100F06EB99EEA445F08D011EAEC
:103C30005E0FBDE8104004BF01F000410020704756
:103C4000BDE8104070B500F00FF900BF64FBBE3E48
:103C50000000E0FF491058BFC1F140415B1058BF60
:103C6000C3F140438B42EFF30080704710F00042F5
:103C700048BF4042B0FA80F310FA03F10AD0C3F112
:103C80001D0303F580634FEA415002EB035202EB40
:103C9000D12170474FF000007047000051EA030C3B
:103CA00017D41CF5801F58BFBCF5801F00F106809B
:103CB000994218BF704708BF9042704707D711F567
:103CC000801F58BF13F5801F19D49942704789424D
:103CD00070471CF5801F08D5BCF5801FF7D58B42B7
:103CE00018BF704708BF824270474FF4001C1CEB9E
:103CF000410F38BF1CEB430F01D28B42704770B5A8
:103D000000F0B2F8922449004FF000514FF0805378
:103D1000FFF7A0BFDFF848C170B51CEA111E1EBF37
:103D20001CEA13159EEA0C0F95EA0C0F00F06F8049
:103D300081EA030423EA4C134EEAD47E21EA4C11B3
:103D400041F4801143F48013AE44A1FB024CA0FB6C
:103D50000365AEF17F7E361955EB0C05A1FB034CD4
:103D60004CF10003A0FB021C16EB0C06654153F15D
:103D70000003094218BF46F0010613F4007F0BD17F
:103D80004FEA03314FEA0530340341EA155140EA66
:103D900016506FF003020AE04FEAC3214FEAC52034
:103DA000F40241EA555140EA56506FF0020202EB2C
:103DB0002E4201EB025585EACE710AD05FEA440C2F
:103DC00018BF24F0004450F1000041F1000120EA46
:103DD000D47040F2FE7C624500D270BDA84214BF90
:103DE0004FF080444FF04044002E08BF0024BEF145
:103DF000806FA8BFA1F1C041BDE8704080F2828011
:103E00004FF0000001F1C04101F0004170479EEA0F
:103E10000C0F0CEA131518BF95EA0C0F06D04FF0E3
:103E2000000081EA030E0EF0004170BD00F01CF8A6
:103E30008900013E00F007B800F009B84FEA430CD2
:103E40005FEA5C5C08D081EA030100F05BB84FEAEE
:103E5000410C5FEA5C5CF6D14FF00000014970470D
:103E60000000FF070000F87F0EF1020E2EF0030E97
:103E70005EF8046B364205D4012A43EB030515F5C1
:103E8000001F12D8012841EB010C1CF5001F0CD8B3
:103E90000ED14FEAD17C15F5001F0CEB4C0C0CF148
:103EA000020C08BF4CEBD37C04E04FF0080C01E09F
:103EB0004FEAD37C0CEB4C0526FA05F606F0070614
:103EC000B6F1040C06D20EEB860CBDE870404CF047
:103ED000010C6047DFE80CF0090B02024FF00041D3
:103EE0004FF00000A1F5002170BD194610460128D1
:103EF00051EB010418BFD4F5001484BF002001F079
:103F0000004170BD0808A0F500114FEA310170476B
:103F100053EA010C17D41CF5801F58BFBCF5801F55
:103F200000F106808B4218BF704708BF824270477D
:103F300007D713F5801F58BF11F5801F19D48B4286
:103F400070479B4270471CF5801F08D5BCF5801F49
:103F5000F7D5994218BF704708BF904270474FF499
:103F6000001C1CEB430F38BF1CEB410F01D29942E0
:103F700070470FB40CBC03BCFFF7C1BE10B591EA8B
:103F8000030F48BF83F000433FF5C4AD841A71EBC3
:103F9000030C07D212198CF0004C43EB0C03001BEE
:103FA00061EB0C01DFF8A4E14FEA1154A4EB135CC0
:103FB0001EEA430F18BF9EEA445F00F0B08023EA78
:103FC0006E03524221EA0451C3EB6E0338BF5B1EFD
:103FD000DCF1200E25D322FA0CFE10EB0E0043FA82
:103FE0000CFE41EB0E01CCF1200E03FA0EFE10EB9D
:103FF0000E0051F10001CCF1200E29D412FA0EF27C
:1040000001EB0451BDE8104058BF7047401C1CBF75
:10401000B2F1004F704700280CBF491C20F001008E
:10402000704712EB020E43EB030218BF4FF0010E74
:104030004EEA4202ACF1200CDCF11E0E54D943FAD8
:104040000CFE10EB0E0051F1FF31CCF11E0ED5D558
:104050000EF1010E12FA0EFE404141EB010101EB9F
:10406000445C5FEA5C5C10D910EBDE7001EB04513C
:1040700038BFBEF1004FBDE8104018BF70470028A0
:104080000CBF491C20F00100704730D24FEAD42CFD
:1040900011F5001124F400641BD0B1FA81F20B3A3F
:1040A000A41AA41ED2F12003914030FA03F319435D
:1040B000904001EBCC71002C01EB0451BDE81040A5
:1040C000A8BF704701F1C0414FF0000001F000416E
:1040D0007047B0FA80F310FA03F100D110BDE41A72
:1040E000173C4805C90AE4E701EB045110BD49102B
:1040F00001EB0451BDE810404FEA300002E04FF000
:10410000000170474A0008BF0042F8D0B2F5001F16
:1041100028BF704701F000414FF0000070479EEA51
:10412000445F07D011EA5E0FBDE8104004BF0021D4
:1041300000207047BDE8104070B5FFF795FE00BF46
:1041400040DFF63E83F00041104670470000E0FF7C
:1041500043004FEAD30C4FEA3C0C43401FBF4007DB
:104160000CF1605113F0FE4F70471CF0006F03D14B
:1041700000200CF0004170470CF0004343EA5070FF
:1041800010B540EACC0000F087F800BF00000092B4
:104190004FEA0001FFF7B6BE4FF000414FF00000BC
:1041A000A1F500217047401058BFC0F140404910B0
:1041B00058BFC1F140418142EFF3008070470000D9
:1041C000C10DD1F19E0206DB4FEA002343F000430C
:1041D00023FA02F07047004207D54FEA4001B1F1DF
:1041E000FE4F02D24FF00000704710B500F054F8B7
:1041F00049922480002070476FEA20007047000039
:1042000010F0004148BF4042B0FA80F310FA03F2C8
:10421000C3F19D030BD051EAC35101EB12205306A9
:1042200038BF704700F1010008BF20F0010070475F
:1042300050EA010C00F113801CF5000F58BFBCF5CB
:10424000000F01D48842704707D710F5000F58BF00
:1042500011F5000F15D488427047894270471CF54C
:10426000000F04D5BCF5000FF7D5814270474FF021
:10427000807C1CEB400F38BF1CEB410F01D2814208
:10428000704710B500F008F8922449004FF0005034
:104290004FF08051FFF787BF0EF1020E2EF0030E94
:1042A0005EF8044B244204D44FEA4102B2F17F4F3E
:1042B00011D84FEA4003B3F17F4F0CD80ED14FEA2B
:1042C000D07CB2F17F4F0CEB4C0C0CF1020C08BF10
:1042D0004CEBD17C04E04FF0080C01E04FEAD17CBC
:1042E0000CEB4C0324FA03F404F00704B4F1040CBF
:1042F00006D20EEB840CBDE810404CF0010C604778
:10430000DFE80CF0070802024FF00040A0F5800043
:1043100010BD0846420018BFD2F1807288BF00F07D
:10432000004010BDFF2141EAD050C005704751EA5E
:10433000000C00F113801CF5000F58BFBCF5000FF6
:1043400001D48142704707D711F5000F58BF10F50F
:10435000000F15D481427047894270471CF5000F49
:1043600004D5BCF5000FF7D5884270474FF0807C2C
:104370001CEB410F38BF1CEB400F01D28842704745
:1043800080EA010081EA000180EA0100FFF779BFBD
:10439000FCF758B902400000000000A00000000037
:1043A00005400000000000C8000000000C400000B4
:1043B0000000409C00000000194000000020BCBE2E
:1043C0000000000034400000BFC91B8E0000000444
:1043D000B5400000504BCFD06607E2CF010000008F
:1043E0006C4100003E8251AADFEEA73401000000BC
:1043F000D9420000DCB5A0E23A301F97FFFFFFFF73
:10440000B4450000FD25A0C8E9A3C14FFFFFFFFF91
:10441000FF3F00000000008000000000FF3F0000A0
:10442000000000800000000064440008000000203C
:10443000C40300006C010008AC460008C40300205F
:1044400084090000D00100081C00000043000000A7
:10445000F8FFFFFF0C0000000E0000000F0000003E
:104460002E000000500600A24A040001000A2901A3
:1044700002030406070809000121346138200502FF
:1044800004060848A0074141540D0A000540252BA9
:1044900043574A41503D2263756E6B6F756C616F77
:1044A0006D757A6875222C223132333435363738BF
:1044B0003930222910164D51545455534552434614
:1044C000473D302C312C224E554C4C291016636F31
:1044D0006E6E6563745F41266872303936754F635E
:1044E00047373718102C3935333743423745303882
:1044F00044364443413537353938464144384443DE
:104500004231333044323738423045413841222C31
:1045100030029222661009434C49454E5449446783
:10452000102E2274657374317C7365637572656DCA
:104530006F64653D335C2C7369676E6D6574686F7D
:10454000643D686D6163736861315C2C74696D2BC7
:10455000A008616D703D31307C4D20044F4E4E49B6
:10456000919D10112E696F742D61732D6D7174748E
:104570002E636E2D41801B6E676861692E616C69C8
:1045800079756E63732E636F6D222C313838332C3E
:1045900031FD20045055424990062F7379732F4EF8
:1045A000762F01141B2F7468696E672F6576656E10
:1045B000742F70726F70657274792F706F737427B7
:1045C00040047B5C22B430065C223A5C222A600AFA
:1045D0002E736572766963652E2C11114009745C27
:1045E000225C2C5C226927400B3230313239333463
:1045F000313135171007706172616D731B12004FF6
:10460000200C4C69676874537769746368122137AA
:10461000100F4F7574707574576174657254656DC1
:104620000B6365721B31151120536C653452314791
:10463000F11962324E100548656174D1C16380057D
:104640004661697275227D96300876657273696F6E
:104650006EB21409312E302E305C227D3F07102CB3
:10466000303C05143816750924072F746F70696380
:104670002931AF5956352D6129925758154311E10B
:104680001805657261741961E41900A2740D923104
:104690001931D679611B4541151D0B030D295003B6
:0C46A0001E194003032C1E000100000046
:0400000508000235B8
:00000001FF
